:1000000013C022C021C020C01FC01EC01DC01CC004
:100010001BC01AC019C03DC017C016C015C014C0FF
:1000200013C012C011C010C011241FBECFEFD1E009
:10003000DEBFCDBF11E0A0E0B1E001C01D92A23053
:10004000B107E1F702D03CC0DBCFE5E4F0E080810E
:10005000877F80838081816080831092010110926C
:100060000001E5E2F0E020E23EE44FEF8091000184
:10007000909101018A379105C9F7808180831092A0
:10008000010110920001C9010197F1F780814083BD
:10009000EDCF1F920F920FB60F9211248F939F9363
:1000A000809100019091010101969093010180934C
:1000B00000019F918F910F900FBE0F901F90189588
:0400C000F894FFCFE2
:00000001FF
